{
  "transactions": [
    {
      "hash": "0x69b4cb31d22d66fe83d92f88a433ceb5ad455d82766b943811f660262eff9201",
      "transactionType": "CALL",
      "contractName": null,
      "contractAddress": "0xfc74cec4ce601491f43a66e797c6af17acc4081e",
      "function": "addJITLiquidity(address,int24,int24,uint256,uint256)",
      "arguments": [
        "0x88e6A0c2dDD26FEEb64F039a2c41296FcB3f5640",
        "200010",
        "200210",
        "1000000000000000000",
        "3000000000"
      ],
      "transaction": {
        "from": "0xcc2072de8d7ae4846c32ce038b451d23a4dad569",
        "to": "0xfc74cec4ce601491f43a66e797c6af17acc4081e",
        "gas": "0x5aeaa",
        "value": "0x0",
        "input": "0x86059b4400000000000000000000000088e6a0c2ddd26feeb64f039a2c41296fcb3f56400000000000000000000000000000000000000000000000000000000000030d4a0000000000000000000000000000000000000000000000000000000000030e120000000000000000000000000000000000000000000000000de0b6b3a764000000000000000000000000000000000000000000000000000000000000b2d05e00",
        "nonce": "0xa",
        "chainId": "0xa6a7"
      },
      "additionalContracts": [],
      "isFixedGasLimit": false
    },
    {
      "hash": "0xb6d206de26d274cc25e277dad677bea7ba2304f3d47a0fef42cbfcdc9d72b10e",
      "transactionType": "CALL",
      "contractName": null,
      "contractAddress": "0xfc74cec4ce601491f43a66e797c6af17acc4081e",
      "function": "removeJITLiquidity(address)",
      "arguments": [
        "0x88e6A0c2dDD26FEEb64F039a2c41296FcB3f5640"
      ],
      "transaction": {
        "from": "0xcc2072de8d7ae4846c32ce038b451d23a4dad569",
        "to": "0xfc74cec4ce601491f43a66e797c6af17acc4081e",
        "gas": "0x30c5c",
        "value": "0x0",
        "input": "0xdec2fea400000000000000000000000088e6a0c2ddd26feeb64f039a2c41296fcb3f5640",
        "nonce": "0xb",
        "chainId": "0xa6a7"
      },
      "additionalContracts": [],
      "isFixedGasLimit": false
    },
    {
      "hash": "0xdc09a61729354ec6c0340edd4a3b99cb82475b2572dbfa618f1f59ef82651cb7",
      "transactionType": "CALL",
      "contractName": null,
      "contractAddress": "0xfc74cec4ce601491f43a66e797c6af17acc4081e",
      "function": "addJITLiquidity(address,int24,int24,uint256,uint256)",
      "arguments": [
        "0x88e6A0c2dDD26FEEb64F039a2c41296FcB3f5640",
        "200010",
        "200210",
        "1000000000000000000",
        "3000000000"
      ],
      "transaction": {
        "from": "0xcc2072de8d7ae4846c32ce038b451d23a4dad569",
        "to": "0xfc74cec4ce601491f43a66e797c6af17acc4081e",
        "gas": "0x56e07",
        "value": "0x0",
        "input": "0x86059b4400000000000000000000000088e6a0c2ddd26feeb64f039a2c41296fcb3f56400000000000000000000000000000000000000000000000000000000000030d4a0000000000000000000000000000000000000000000000000000000000030e120000000000000000000000000000000000000000000000000de0b6b3a764000000000000000000000000000000000000000000000000000000000000b2d05e00",
        "nonce": "0xc",
        "chainId": "0xa6a7"
      },
      "additionalContracts": [],
      "isFixedGasLimit": false
    },
    {
      "hash": "0x9a199a6ffb01e9cab26f16606799659f5a81f3acfe66b7aff2f414a37a0a78d1",
      "transactionType": "CALL",
      "contractName": null,
      "contractAddress": "0xfc74cec4ce601491f43a66e797c6af17acc4081e",
      "function": "removeJITLiquidity(address)",
      "arguments": [
        "0x88e6A0c2dDD26FEEb64F039a2c41296FcB3f5640"
      ],
      "transaction": {
        "from": "0xcc2072de8d7ae4846c32ce038b451d23a4dad569",
        "to": "0xfc74cec4ce601491f43a66e797c6af17acc4081e",
        "gas": "0x30c5c",
        "value": "0x0",
        "input": "0xdec2fea400000000000000000000000088e6a0c2ddd26feeb64f039a2c41296fcb3f5640",
        "nonce": "0xd",
        "chainId": "0xa6a7"
      },
      "additionalContracts": [],
      "isFixedGasLimit": false
    },
    {
      "hash": "0x69065da2ea8a5fb38a2c2dfaf97d47437d390a14432f040e9cfecac5c30917e0",
      "transactionType": "CALL",
      "contractName": null,
      "contractAddress": "0xfc74cec4ce601491f43a66e797c6af17acc4081e",
      "function": "addJITLiquidity(address,int24,int24,uint256,uint256)",
      "arguments": [
        "0x88e6A0c2dDD26FEEb64F039a2c41296FcB3f5640",
        "200010",
        "200210",
        "1000000000000000000",
        "3000000000"
      ],
      "transaction": {
        "from": "0xcc2072de8d7ae4846c32ce038b451d23a4dad569",
        "to": "0xfc74cec4ce601491f43a66e797c6af17acc4081e",
        "gas": "0x56e07",
        "value": "0x0",
        "input": "0x86059b4400000000000000000000000088e6a0c2ddd26feeb64f039a2c41296fcb3f56400000000000000000000000000000000000000000000000000000000000030d4a0000000000000000000000000000000000000000000000000000000000030e120000000000000000000000000000000000000000000000000de0b6b3a764000000000000000000000000000000000000000000000000000000000000b2d05e00",
        "nonce": "0xe",
        "chainId": "0xa6a7"
      },
      "additionalContracts": [],
      "isFixedGasLimit": false
    },
    {
      "hash": "0xbcb0db75b0e01db719eeba387b7c62757d38c8464c23b2ccdd43e234e5e0e852",
      "transactionType": "CALL",
      "contractName": null,
      "contractAddress": "0xfc74cec4ce601491f43a66e797c6af17acc4081e",
      "function": "removeJITLiquidity(address)",
      "arguments": [
        "0x88e6A0c2dDD26FEEb64F039a2c41296FcB3f5640"
      ],
      "transaction": {
        "from": "0xcc2072de8d7ae4846c32ce038b451d23a4dad569",
        "to": "0xfc74cec4ce601491f43a66e797c6af17acc4081e",
        "gas": "0x30c5c",
        "value": "0x0",
        "input": "0xdec2fea400000000000000000000000088e6a0c2ddd26feeb64f039a2c41296fcb3f5640",
        "nonce": "0xf",
        "chainId": "0xa6a7"
      },
      "additionalContracts": [],
      "isFixedGasLimit": false
    },
    {
      "hash": "0x2d714b080b618566df92199c50d1489e8c7d7374061f6b63cd443a8cbd60a90c",
      "transactionType": "CALL",
      "contractName": null,
      "contractAddress": "0xfc74cec4ce601491f43a66e797c6af17acc4081e",
      "function": "addJITLiquidity(address,int24,int24,uint256,uint256)",
      "arguments": [
        "0x88e6A0c2dDD26FEEb64F039a2c41296FcB3f5640",
        "200010",
        "200210",
        "1000000000000000000",
        "3000000000"
      ],
      "transaction": {
        "from": "0xcc2072de8d7ae4846c32ce038b451d23a4dad569",
        "to": "0xfc74cec4ce601491f43a66e797c6af17acc4081e",
        "gas": "0x56e07",
        "value": "0x0",
        "input": "0x86059b4400000000000000000000000088e6a0c2ddd26feeb64f039a2c41296fcb3f56400000000000000000000000000000000000000000000000000000000000030d4a0000000000000000000000000000000000000000000000000000000000030e120000000000000000000000000000000000000000000000000de0b6b3a764000000000000000000000000000000000000000000000000000000000000b2d05e00",
        "nonce": "0x10",
        "chainId": "0xa6a7"
      },
      "additionalContracts": [],
      "isFixedGasLimit": false
    },
    {
      "hash": "0xcdb94ed2da41b7074a148f7bb93a4fe151b1950ad4a4e9f733bf361f560f03f0",
      "transactionType": "CALL",
      "contractName": null,
      "contractAddress": "0xfc74cec4ce601491f43a66e797c6af17acc4081e",
      "function": "removeJITLiquidity(address)",
      "arguments": [
        "0x88e6A0c2dDD26FEEb64F039a2c41296FcB3f5640"
      ],
      "transaction": {
        "from": "0xcc2072de8d7ae4846c32ce038b451d23a4dad569",
        "to": "0xfc74cec4ce601491f43a66e797c6af17acc4081e",
        "gas": "0x30c5c",
        "value": "0x0",
        "input": "0xdec2fea400000000000000000000000088e6a0c2ddd26feeb64f039a2c41296fcb3f5640",
        "nonce": "0x11",
        "chainId": "0xa6a7"
      },
      "additionalContracts": [],
      "isFixedGasLimit": false
    },
    {
      "hash": "0xbf0e35cc7efc66d043917b0fdf89eed10312a6e325da569d2aee2b9e1063b11c",
      "transactionType": "CALL",
      "contractName": null,
      "contractAddress": "0xfc74cec4ce601491f43a66e797c6af17acc4081e",
      "function": "addJITLiquidity(address,int24,int24,uint256,uint256)",
      "arguments": [
        "0x88e6A0c2dDD26FEEb64F039a2c41296FcB3f5640",
        "200010",
        "200210",
        "1000000000000000000",
        "3000000000"
      ],
      "transaction": {
        "from": "0xcc2072de8d7ae4846c32ce038b451d23a4dad569",
        "to": "0xfc74cec4ce601491f43a66e797c6af17acc4081e",
        "gas": "0x56e07",
        "value": "0x0",
        "input": "0x86059b4400000000000000000000000088e6a0c2ddd26feeb64f039a2c41296fcb3f56400000000000000000000000000000000000000000000000000000000000030d4a0000000000000000000000000000000000000000000000000000000000030e120000000000000000000000000000000000000000000000000de0b6b3a764000000000000000000000000000000000000000000000000000000000000b2d05e00",
        "nonce": "0x12",
        "chainId": "0xa6a7"
      },
      "additionalContracts": [],
      "isFixedGasLimit": false
    },
    {
      "hash": "0xb0d48309a3de4f32c70d58c2ee61ae264cde4d311ab0025d1b4ee19a2268eec5",
      "transactionType": "CALL",
      "contractName": null,
      "contractAddress": "0xfc74cec4ce601491f43a66e797c6af17acc4081e",
      "function": "removeJITLiquidity(address)",
      "arguments": [
        "0x88e6A0c2dDD26FEEb64F039a2c41296FcB3f5640"
      ],
      "transaction": {
        "from": "0xcc2072de8d7ae4846c32ce038b451d23a4dad569",
        "to": "0xfc74cec4ce601491f43a66e797c6af17acc4081e",
        "gas": "0x30c5c",
        "value": "0x0",
        "input": "0xdec2fea400000000000000000000000088e6a0c2ddd26feeb64f039a2c41296fcb3f5640",
        "nonce": "0x13",
        "chainId": "0xa6a7"
      },
      "additionalContracts": [],
      "isFixedGasLimit": false
    }
  ],
  "receipts": [
    {
      "status": "0x1",
      "cumulativeGasUsed": "0x2511f01",
      "logs": [
        {
          "address": "0xa0b86991c6218b36c1d19d4a2e9eb0ce3606eb48",
          "topics": [
            "0xddf252ad1be2c89b69c2b068fc378daa952ba7f163c4a11628f55a4df523b3ef",
            "0x000000000000000000000000fc74cec4ce601491f43a66e797c6af17acc4081e",
            "0x00000000000000000000000088e6a0c2ddd26feeb64f039a2c41296fcb3f5640"
          ],
          "data": "0x0000000000000000000000000000000000000000000000000000000000000006",
          "blockHash": "0x7cb7832e89629ef5b398394e9a70458d43a377494b2335c9debaa346f4f897fc",
          "blockNumber": "0x176f28d",
          "transactionHash": "0x69b4cb31d22d66fe83d92f88a433ceb5ad455d82766b943811f660262eff9201",
          "transactionIndex": "0x0",
          "logIndex": "0x0",
          "removed": false
        },
        {
          "address": "0xc02aaa39b223fe8d0a0e5c4f27ead9083c756cc2",
          "topics": [
            "0xddf252ad1be2c89b69c2b068fc378daa952ba7f163c4a11628f55a4df523b3ef",
            "0x000000000000000000000000fc74cec4ce601491f43a66e797c6af17acc4081e",
            "0x00000000000000000000000088e6a0c2ddd26feeb64f039a2c41296fcb3f5640"
          ],
          "data": "0x00000000000000000000000000000000000000000000000000000000b2d05da8",
          "blockHash": "0x7cb7832e89629ef5b398394e9a70458d43a377494b2335c9debaa346f4f897fc",
          "blockNumber": "0x176f28d",
          "transactionHash": "0x69b4cb31d22d66fe83d92f88a433ceb5ad455d82766b943811f660262eff9201",
          "transactionIndex": "0x0",
          "logIndex": "0x1",
          "removed": false
        },
        {
          "address": "0x88e6a0c2ddd26feeb64f039a2c41296fcb3f5640",
          "topics": [
            "0x7a53080ba414158be7ec69b987b5fb7d07dee101fe85488f0853ae16239d0bde",
            "0x000000000000000000000000fc74cec4ce601491f43a66e797c6af17acc4081e",
            "0x0000000000000000000000000000000000000000000000000000000000030d4a",
            "0x0000000000000000000000000000000000000000000000000000000000030e12"
          ],
          "data": "0x000000000000000000000000fc74cec4ce601491f43a66e797c6af17acc4081e00000000000000000000000000000000000000000000000000000000017fc2ef000000000000000000000000000000000000000000000000000000000000000600000000000000000000000000000000000000000000000000000000b2d05da8",
          "blockHash": "0x7cb7832e89629ef5b398394e9a70458d43a377494b2335c9debaa346f4f897fc",
          "blockNumber": "0x176f28d",
          "transactionHash": "0x69b4cb31d22d66fe83d92f88a433ceb5ad455d82766b943811f660262eff9201",
          "transactionIndex": "0x0",
          "logIndex": "0x2",
          "removed": false
        },
        {
          "address": "0xfc74cec4ce601491f43a66e797c6af17acc4081e",
          "topics": [
            "0xc14ae40f0f069a7ba8576beee275b0dcf2c0607581fbc39709fd79051ec2d6f8",
            "0x00000000000000000000000088e6a0c2ddd26feeb64f039a2c41296fcb3f5640"
          ],
          "data": "0x00000000000000000000000000000000000000000000000000000000017fc2ef0000000000000000000000000000000000000000000000000000000000030d4a0000000000000000000000000000000000000000000000000000000000030e12000000000000000000000000000000000000000000000000000000000000000600000000000000000000000000000000000000000000000000000000b2d05da8",
          "blockHash": "0x7cb7832e89629ef5b398394e9a70458d43a377494b2335c9debaa346f4f897fc",
          "blockNumber": "0x176f28d",
          "transactionHash": "0x69b4cb31d22d66fe83d92f88a433ceb5ad455d82766b943811f660262eff9201",
          "transactionIndex": "0x0",
          "logIndex": "0x3",
          "removed": false
        }
      ],
      "logsBloom": "0x00000000010100000000100000000000000000000000000000000000040000000000000000000002000008000000000002000000080000000000000000001000000000000000208008000008000000000000000000000000000000000000000000000000000000000000000000000000000000000000000000100010000000000000000028000000000000000000008000000000010000000041000000000000000000000000200000000000000000000000000008000000002800000008000000000002000000000000080000000000000000000000000000000000000000080800200000000000000010000000000000000000000000000000008000000000",
      "type": "0x2",
      "transactionHash": "0x69b4cb31d22d66fe83d92f88a433ceb5ad455d82766b943811f660262eff9201",
      "transactionIndex": "0x0",
      "blockHash": "0x7cb7832e89629ef5b398394e9a70458d43a377494b2335c9debaa346f4f897fc",
      "blockNumber": "0x176f28d",
      "gasUsed": "0x41d27",
      "effectiveGasPrice": "0x5571390",
      "from": "0xcc2072de8d7ae4846c32ce038b451d23a4dad569",
      "to": "0xfc74cec4ce601491f43a66e797c6af17acc4081e",
      "contractAddress": null
    },
    {
      "status": "0x1",
      "cumulativeGasUsed": "0x24f36d2",
      "logs": [
        {
          "address": "0x88e6a0c2ddd26feeb64f039a2c41296fcb3f5640",
          "topics": [
            "0x0c396cd989a39f4459b5fa1aed6a9a8dcdbc45908acfd67e028cd568da98982c",
            "0x000000000000000000000000fc74cec4ce601491f43a66e797c6af17acc4081e",
            "0x0000000000000000000000000000000000000000000000000000000000030d4a",
            "0x0000000000000000000000000000000000000000000000000000000000030e12"
          ],
          "data": "0x00000000000000000000000000000000000000000000000000000000017fc2ef000000000000000000000000000000000000000000000000000000000000000500000000000000000000000000000000000000000000000000000000b2d05da7",
          "blockHash": "0x7cb7832e89629ef5b398394e9a70458d43a377494b2335c9debaa346f4f897fc",
          "blockNumber": "0x176f28d",
          "transactionHash": "0xb6d206de26d274cc25e277dad677bea7ba2304f3d47a0fef42cbfcdc9d72b10e",
          "transactionIndex": "0x1",
          "logIndex": "0x0",
          "removed": false
        },
        {
          "address": "0xa0b86991c6218b36c1d19d4a2e9eb0ce3606eb48",
          "topics": [
            "0xddf252ad1be2c89b69c2b068fc378daa952ba7f163c4a11628f55a4df523b3ef",
            "0x00000000000000000000000088e6a0c2ddd26feeb64f039a2c41296fcb3f5640",
            "0x000000000000000000000000fc74cec4ce601491f43a66e797c6af17acc4081e"
          ],
          "data": "0x0000000000000000000000000000000000000000000000000000000000000005",
          "blockHash": "0x7cb7832e89629ef5b398394e9a70458d43a377494b2335c9debaa346f4f897fc",
          "blockNumber": "0x176f28d",
          "transactionHash": "0xb6d206de26d274cc25e277dad677bea7ba2304f3d47a0fef42cbfcdc9d72b10e",
          "transactionIndex": "0x1",
          "logIndex": "0x1",
          "removed": false
        },
        {
          "address": "0xc02aaa39b223fe8d0a0e5c4f27ead9083c756cc2",
          "topics": [
            "0xddf252ad1be2c89b69c2b068fc378daa952ba7f163c4a11628f55a4df523b3ef",
            "0x00000000000000000000000088e6a0c2ddd26feeb64f039a2c41296fcb3f5640",
            "0x000000000000000000000000fc74cec4ce601491f43a66e797c6af17acc4081e"
          ],
          "data": "0x00000000000000000000000000000000000000000000000000000000b2d05da7",
          "blockHash": "0x7cb7832e89629ef5b398394e9a70458d43a377494b2335c9debaa346f4f897fc",
          "blockNumber": "0x176f28d",
          "transactionHash": "0xb6d206de26d274cc25e277dad677bea7ba2304f3d47a0fef42cbfcdc9d72b10e",
          "transactionIndex": "0x1",
          "logIndex": "0x2",
          "removed": false
        },
        {
          "address": "0x88e6a0c2ddd26feeb64f039a2c41296fcb3f5640",
          "topics": [
            "0x70935338e69775456a85ddef226c395fb668b63fa0115f5f20610b388e6ca9c0",
            "0x000000000000000000000000fc74cec4ce601491f43a66e797c6af17acc4081e",
            "0x0000000000000000000000000000000000000000000000000000000000030d4a",
            "0x0000000000000000000000000000000000000000000000000000000000030e12"
          ],
          "data": "0x000000000000000000000000fc74cec4ce601491f43a66e797c6af17acc4081e000000000000000000000000000000000000000000000000000000000000000500000000000000000000000000000000000000000000000000000000b2d05da7",
          "blockHash": "0x7cb7832e89629ef5b398394e9a70458d43a377494b2335c9debaa346f4f897fc",
          "blockNumber": "0x176f28d",
          "transactionHash": "0xb6d206de26d274cc25e277dad677bea7ba2304f3d47a0fef42cbfcdc9d72b10e",
          "transactionIndex": "0x1",
          "logIndex": "0x3",
          "removed": false
        },
        {
          "address": "0xfc74cec4ce601491f43a66e797c6af17acc4081e",
          "topics": [
            "0xe811ee4026cff80189c070b374c1d89f48462d565db565b6206c410a5db1f3a9",
            "0x00000000000000000000000088e6a0c2ddd26feeb64f039a2c41296fcb3f5640"
          ],
          "data": "0x00000000000000000000000000000000000000000000000000000000017fc2ef000000000000000000000000000000000000000000000000000000000000000500000000000000000000000000000000000000000000000000000000b2d05da7",
          "blockHash": "0x7cb7832e89629ef5b398394e9a70458d43a377494b2335c9debaa346f4f897fc",
          "blockNumber": "0x176f28d",
          "transactionHash": "0xb6d206de26d274cc25e277dad677bea7ba2304f3d47a0fef42cbfcdc9d72b10e",
          "transactionIndex": "0x1",
          "logIndex": "0x4",
          "removed": false
        },
        {
          "address": "0xfc74cec4ce601491f43a66e797c6af17acc4081e",
          "topics": [
            "0x2e4fb6077d4acf86e12bb7411fb82b2b3eaa6a49787f4b1e17b423e7ea841169",
            "0x00000000000000000000000088e6a0c2ddd26feeb64f039a2c41296fcb3f5640"
          ],
          "data": "0x00000000000000000000000000000000000000000000000000000000000000000000000000000000000000000000000000000000000000000000000000000000",
          "blockHash": "0x7cb7832e89629ef5b398394e9a70458d43a377494b2335c9debaa346f4f897fc",
          "blockNumber": "0x176f28d",
          "transactionHash": "0xb6d206de26d274cc25e277dad677bea7ba2304f3d47a0fef42cbfcdc9d72b10e",
          "transactionIndex": "0x1",
          "logIndex": "0x5",
          "removed": false
        }
      ],
      "logsBloom": "0x00000000010000000000000002000000002000000000000000000000040000000000000000000002000008000000000002000000080000000200000000001000000000000000208008000008000000000000000000010000010000000000000000000000000000000000000000000000000000000004000000100010000000000000000000000000000000000000008000008000010000000041000000000000000000000000200000000000000000000000000008000000002800000008000000000002000000000000080000000020000000000000000000000000000000080000280100040000000010000000000000000000000000000000008000000000",
      "type": "0x2",
      "transactionHash": "0xb6d206de26d274cc25e277dad677bea7ba2304f3d47a0fef42cbfcdc9d72b10e",
      "transactionIndex": "0x1",
      "blockHash": "0x7cb7832e89629ef5b398394e9a70458d43a377494b2335c9debaa346f4f897fc",
      "blockNumber": "0x176f28d",
      "gasUsed": "0x234f8",
      "effectiveGasPrice": "0x5571390",
      "from": "0xcc2072de8d7ae4846c32ce038b451d23a4dad569",
      "to": "0xfc74cec4ce601491f43a66e797c6af17acc4081e",
      "contractAddress": null
    },
    {
      "status": "0x1",
      "cumulativeGasUsed": "0x250f036",
      "logs": [
        {
          "address": "0xa0b86991c6218b36c1d19d4a2e9eb0ce3606eb48",
          "topics": [
            "0xddf252ad1be2c89b69c2b068fc378daa952ba7f163c4a11628f55a4df523b3ef",
            "0x000000000000000000000000fc74cec4ce601491f43a66e797c6af17acc4081e",
            "0x00000000000000000000000088e6a0c2ddd26feeb64f039a2c41296fcb3f5640"
          ],
          "data": "0x0000000000000000000000000000000000000000000000000000000000000006",
          "blockHash": "0x7cb7832e89629ef5b398394e9a70458d43a377494b2335c9debaa346f4f897fc",
          "blockNumber": "0x176f28d",
          "transactionHash": "0xdc09a61729354ec6c0340edd4a3b99cb82475b2572dbfa618f1f59ef82651cb7",
          "transactionIndex": "0x2",
          "logIndex": "0x0",
          "removed": false
        },
        {
          "address": "0xc02aaa39b223fe8d0a0e5c4f27ead9083c756cc2",
          "topics": [
            "0xddf252ad1be2c89b69c2b068fc378daa952ba7f163c4a11628f55a4df523b3ef",
            "0x000000000000000000000000fc74cec4ce601491f43a66e797c6af17acc4081e",
            "0x00000000000000000000000088e6a0c2ddd26feeb64f039a2c41296fcb3f5640"
          ],
          "data": "0x00000000000000000000000000000000000000000000000000000000b2d05da8",
          "blockHash": "0x7cb7832e89629ef5b398394e9a70458d43a377494b2335c9debaa346f4f897fc",
          "blockNumber": "0x176f28d",
          "transactionHash": "0xdc09a61729354ec6c0340edd4a3b99cb82475b2572dbfa618f1f59ef82651cb7",
          "transactionIndex": "0x2",
          "logIndex": "0x1",
          "removed": false
        },
        {
          "address": "0x88e6a0c2ddd26feeb64f039a2c41296fcb3f5640",
          "topics": [
            "0x7a53080ba414158be7ec69b987b5fb7d07dee101fe85488f0853ae16239d0bde",
            "0x000000000000000000000000fc74cec4ce601491f43a66e797c6af17acc4081e",
            "0x0000000000000000000000000000000000000000000000000000000000030d4a",
            "0x0000000000000000000000000000000000000000000000000000000000030e12"
          ],
          "data": "0x000000000000000000000000fc74cec4ce601491f43a66e797c6af17acc4081e00000000000000000000000000000000000000000000000000000000017fc2ef000000000000000000000000000000000000000000000000000000000000000600000000000000000000000000000000000000000000000000000000b2d05da8",
          "blockHash": "0x7cb7832e89629ef5b398394e9a70458d43a377494b2335c9debaa346f4f897fc",
          "blockNumber": "0x176f28d",
          "transactionHash": "0xdc09a61729354ec6c0340edd4a3b99cb82475b2572dbfa618f1f59ef82651cb7",
          "transactionIndex": "0x2",
          "logIndex": "0x2",
          "removed": false
        },
        {
          "address": "0xfc74cec4ce601491f43a66e797c6af17acc4081e",
          "topics": [
            "0xc14ae40f0f069a7ba8576beee275b0dcf2c0607581fbc39709fd79051ec2d6f8",
            "0x00000000000000000000000088e6a0c2ddd26feeb64f039a2c41296fcb3f5640"
          ],
          "data": "0x00000000000000000000000000000000000000000000000000000000017fc2ef0000000000000000000000000000000000000000000000000000000000030d4a0000000000000000000000000000000000000000000000000000000000030e12000000000000000000000000000000000000000000000000000000000000000600000000000000000000000000000000000000000000000000000000b2d05da8",
          "blockHash": "0x7cb7832e89629ef5b398394e9a70458d43a377494b2335c9debaa346f4f897fc",
          "blockNumber": "0x176f28d",
          "transactionHash": "0xdc09a61729354ec6c0340edd4a3b99cb82475b2572dbfa618f1f59ef82651cb7",
          "transactionIndex": "0x2",
          "logIndex": "0x3",
          "removed": false
        }
      ],
      "logsBloom": "0x00000000010100000000100000000000000000000000000000000000040000000000000000000002000008000000000002000000080000000000000000001000000000000000208008000008000000000000000000000000000000000000000000000000000000000000000000000000000000000000000000100010000000000000000028000000000000000000008000000000010000000041000000000000000000000000200000000000000000000000000008000000002800000008000000000002000000000000080000000000000000000000000000000000000000080800200000000000000010000000000000000000000000000000008000000000",
      "type": "0x2",
      "transactionHash": "0xdc09a61729354ec6c0340edd4a3b99cb82475b2572dbfa618f1f59ef82651cb7",
      "transactionIndex": "0x2",
      "blockHash": "0x7cb7832e89629ef5b398394e9a70458d43a377494b2335c9debaa346f4f897fc",
      "blockNumber": "0x176f28d",
      "gasUsed": "0x3ee5c",
      "effectiveGasPrice": "0x5571390",
      "from": "0xcc2072de8d7ae4846c32ce038b451d23a4dad569",
      "to": "0xfc74cec4ce601491f43a66e797c6af17acc4081e",
      "contractAddress": null
    },
    {
      "status": "0x1",
      "cumulativeGasUsed": "0x24f36d2",
      "logs": [
        {
          "address": "0x88e6a0c2ddd26feeb64f039a2c41296fcb3f5640",
          "topics": [
            "0x0c396cd989a39f4459b5fa1aed6a9a8dcdbc45908acfd67e028cd568da98982c",
            "0x000000000000000000000000fc74cec4ce601491f43a66e797c6af17acc4081e",
            "0x0000000000000000000000000000000000000000000000000000000000030d4a",
            "0x0000000000000000000000000000000000000000000000000000000000030e12"
          ],
          "data": "0x00000000000000000000000000000000000000000000000000000000017fc2ef000000000000000000000000000000000000000000000000000000000000000500000000000000000000000000000000000000000000000000000000b2d05da7",
          "blockHash": "0x7cb7832e89629ef5b398394e9a70458d43a377494b2335c9debaa346f4f897fc",
          "blockNumber": "0x176f28d",
          "transactionHash": "0x9a199a6ffb01e9cab26f16606799659f5a81f3acfe66b7aff2f414a37a0a78d1",
          "transactionIndex": "0x3",
          "logIndex": "0x0",
          "removed": false
        },
        {
          "address": "0xa0b86991c6218b36c1d19d4a2e9eb0ce3606eb48",
          "topics": [
            "0xddf252ad1be2c89b69c2b068fc378daa952ba7f163c4a11628f55a4df523b3ef",
            "0x00000000000000000000000088e6a0c2ddd26feeb64f039a2c41296fcb3f5640",
            "0x000000000000000000000000fc74cec4ce601491f43a66e797c6af17acc4081e"
          ],
          "data": "0x0000000000000000000000000000000000000000000000000000000000000005",
          "blockHash": "0x7cb7832e89629ef5b398394e9a70458d43a377494b2335c9debaa346f4f897fc",
          "blockNumber": "0x176f28d",
          "transactionHash": "0x9a199a6ffb01e9cab26f16606799659f5a81f3acfe66b7aff2f414a37a0a78d1",
          "transactionIndex": "0x3",
          "logIndex": "0x1",
          "removed": false
        },
        {
          "address": "0xc02aaa39b223fe8d0a0e5c4f27ead9083c756cc2",
          "topics": [
            "0xddf252ad1be2c89b69c2b068fc378daa952ba7f163c4a11628f55a4df523b3ef",
            "0x00000000000000000000000088e6a0c2ddd26feeb64f039a2c41296fcb3f5640",
            "0x000000000000000000000000fc74cec4ce601491f43a66e797c6af17acc4081e"
          ],
          "data": "0x00000000000000000000000000000000000000000000000000000000b2d05da7",
          "blockHash": "0x7cb7832e89629ef5b398394e9a70458d43a377494b2335c9debaa346f4f897fc",
          "blockNumber": "0x176f28d",
          "transactionHash": "0x9a199a6ffb01e9cab26f16606799659f5a81f3acfe66b7aff2f414a37a0a78d1",
          "transactionIndex": "0x3",
          "logIndex": "0x2",
          "removed": false
        },
        {
          "address": "0x88e6a0c2ddd26feeb64f039a2c41296fcb3f5640",
          "topics": [
            "0x70935338e69775456a85ddef226c395fb668b63fa0115f5f20610b388e6ca9c0",
            "0x000000000000000000000000fc74cec4ce601491f43a66e797c6af17acc4081e",
            "0x0000000000000000000000000000000000000000000000000000000000030d4a",
            "0x0000000000000000000000000000000000000000000000000000000000030e12"
          ],
          "data": "0x000000000000000000000000fc74cec4ce601491f43a66e797c6af17acc4081e000000000000000000000000000000000000000000000000000000000000000500000000000000000000000000000000000000000000000000000000b2d05da7",
          "blockHash": "0x7cb7832e89629ef5b398394e9a70458d43a377494b2335c9debaa346f4f897fc",
          "blockNumber": "0x176f28d",
          "transactionHash": "0x9a199a6ffb01e9cab26f16606799659f5a81f3acfe66b7aff2f414a37a0a78d1",
          "transactionIndex": "0x3",
          "logIndex": "0x3",
          "removed": false
        },
        {
          "address": "0xfc74cec4ce601491f43a66e797c6af17acc4081e",
          "topics": [
            "0xe811ee4026cff80189c070b374c1d89f48462d565db565b6206c410a5db1f3a9",
            "0x00000000000000000000000088e6a0c2ddd26feeb64f039a2c41296fcb3f5640"
          ],
          "data": "0x00000000000000000000000000000000000000000000000000000000017fc2ef000000000000000000000000000000000000000000000000000000000000000500000000000000000000000000000000000000000000000000000000b2d05da7",
          "blockHash": "0x7cb7832e89629ef5b398394e9a70458d43a377494b2335c9debaa346f4f897fc",
          "blockNumber": "0x176f28d",
          "transactionHash": "0x9a199a6ffb01e9cab26f16606799659f5a81f3acfe66b7aff2f414a37a0a78d1",
          "transactionIndex": "0x3",
          "logIndex": "0x4",
          "removed": false
        },
        {
          "address": "0xfc74cec4ce601491f43a66e797c6af17acc4081e",
          "topics": [
            "0x2e4fb6077d4acf86e12bb7411fb82b2b3eaa6a49787f4b1e17b423e7ea841169",
            "0x00000000000000000000000088e6a0c2ddd26feeb64f039a2c41296fcb3f5640"
          ],
          "data": "0x00000000000000000000000000000000000000000000000000000000000000000000000000000000000000000000000000000000000000000000000000000000",
          "blockHash": "0x7cb7832e89629ef5b398394e9a70458d43a377494b2335c9debaa346f4f897fc",
          "blockNumber": "0x176f28d",
          "transactionHash": "0x9a199a6ffb01e9cab26f16606799659f5a81f3acfe66b7aff2f414a37a0a78d1",
          "transactionIndex": "0x3",
          "logIndex": "0x5",
          "removed": false
        }
      ],
      "logsBloom": "0x00000000010000000000000002000000002000000000000000000000040000000000000000000002000008000000000002000000080000000200000000001000000000000000208008000008000000000000000000010000010000000000000000000000000000000000000000000000000000000004000000100010000000000000000000000000000000000000008000008000010000000041000000000000000000000000200000000000000000000000000008000000002800000008000000000002000000000000080000000020000000000000000000000000000000080000280100040000000010000000000000000000000000000000008000000000",
      "type": "0x2",
      "transactionHash": "0x9a199a6ffb01e9cab26f16606799659f5a81f3acfe66b7aff2f414a37a0a78d1",
      "transactionIndex": "0x3",
      "blockHash": "0x7cb7832e89629ef5b398394e9a70458d43a377494b2335c9debaa346f4f897fc",
      "blockNumber": "0x176f28d",
      "gasUsed": "0x234f8",
      "effectiveGasPrice": "0x5571390",
      "from": "0xcc2072de8d7ae4846c32ce038b451d23a4dad569",
      "to": "0xfc74cec4ce601491f43a66e797c6af17acc4081e",
      "contractAddress": null
    },
    {
      "status": "0x1",
      "cumulativeGasUsed": "0x250f036",
      "logs": [
        {
          "address": "0xa0b86991c6218b36c1d19d4a2e9eb0ce3606eb48",
          "topics": [
            "0xddf252ad1be2c89b69c2b068fc378daa952ba7f163c4a11628f55a4df523b3ef",
            "0x000000000000000000000000fc74cec4ce601491f43a66e797c6af17acc4081e",
            "0x00000000000000000000000088e6a0c2ddd26feeb64f039a2c41296fcb3f5640"
          ],
          "data": "0x0000000000000000000000000000000000000000000000000000000000000006",
          "blockHash": "0x7cb7832e89629ef5b398394e9a70458d43a377494b2335c9debaa346f4f897fc",
          "blockNumber": "0x176f28d",
          "transactionHash": "0x69065da2ea8a5fb38a2c2dfaf97d47437d390a14432f040e9cfecac5c30917e0",
          "transactionIndex": "0x4",
          "logIndex": "0x0",
          "removed": false
        },
        {
          "address": "0xc02aaa39b223fe8d0a0e5c4f27ead9083c756cc2",
          "topics": [
            "0xddf252ad1be2c89b69c2b068fc378daa952ba7f163c4a11628f55a4df523b3ef",
            "0x000000000000000000000000fc74cec4ce601491f43a66e797c6af17acc4081e",
            "0x00000000000000000000000088e6a0c2ddd26feeb64f039a2c41296fcb3f5640"
          ],
          "data": "0x00000000000000000000000000000000000000000000000000000000b2d05da8",
          "blockHash": "0x7cb7832e89629ef5b398394e9a70458d43a377494b2335c9debaa346f4f897fc",
          "blockNumber": "0x176f28d",
          "transactionHash": "0x69065da2ea8a5fb38a2c2dfaf97d47437d390a14432f040e9cfecac5c30917e0",
          "transactionIndex": "0x4",
          "logIndex": "0x1",
          "removed": false
        },
        {
          "address": "0x88e6a0c2ddd26feeb64f039a2c41296fcb3f5640",
          "topics": [
            "0x7a53080ba414158be7ec69b987b5fb7d07dee101fe85488f0853ae16239d0bde",
            "0x000000000000000000000000fc74cec4ce601491f43a66e797c6af17acc4081e",
            "0x0000000000000000000000000000000000000000000000000000000000030d4a",
            "0x0000000000000000000000000000000000000000000000000000000000030e12"
          ],
          "data": "0x000000000000000000000000fc74cec4ce601491f43a66e797c6af17acc4081e00000000000000000000000000000000000000000000000000000000017fc2ef000000000000000000000000000000000000000000000000000000000000000600000000000000000000000000000000000000000000000000000000b2d05da8",
          "blockHash": "0x7cb7832e89629ef5b398394e9a70458d43a377494b2335c9debaa346f4f897fc",
          "blockNumber": "0x176f28d",
          "transactionHash": "0x69065da2ea8a5fb38a2c2dfaf97d47437d390a14432f040e9cfecac5c30917e0",
          "transactionIndex": "0x4",
          "logIndex": "0x2",
          "removed": false
        },
        {
          "address": "0xfc74cec4ce601491f43a66e797c6af17acc4081e",
          "topics": [
            "0xc14ae40f0f069a7ba8576beee275b0dcf2c0607581fbc39709fd79051ec2d6f8",
            "0x00000000000000000000000088e6a0c2ddd26feeb64f039a2c41296fcb3f5640"
          ],
          "data": "0x00000000000000000000000000000000000000000000000000000000017fc2ef0000000000000000000000000000000000000000000000000000000000030d4a0000000000000000000000000000000000000000000000000000000000030e12000000000000000000000000000000000000000000000000000000000000000600000000000000000000000000000000000000000000000000000000b2d05da8",
          "blockHash": "0x7cb7832e89629ef5b398394e9a70458d43a377494b2335c9debaa346f4f897fc",
          "blockNumber": "0x176f28d",
          "transactionHash": "0x69065da2ea8a5fb38a2c2dfaf97d47437d390a14432f040e9cfecac5c30917e0",
          "transactionIndex": "0x4",
          "logIndex": "0x3",
          "removed": false
        }
      ],
      "logsBloom": "0x00000000010100000000100000000000000000000000000000000000040000000000000000000002000008000000000002000000080000000000000000001000000000000000208008000008000000000000000000000000000000000000000000000000000000000000000000000000000000000000000000100010000000000000000028000000000000000000008000000000010000000041000000000000000000000000200000000000000000000000000008000000002800000008000000000002000000000000080000000000000000000000000000000000000000080800200000000000000010000000000000000000000000000000008000000000",
      "type": "0x2",
      "transactionHash": "0x69065da2ea8a5fb38a2c2dfaf97d47437d390a14432f040e9cfecac5c30917e0",
      "transactionIndex": "0x4",
      "blockHash": "0x7cb7832e89629ef5b398394e9a70458d43a377494b2335c9debaa346f4f897fc",
      "blockNumber": "0x176f28d",
      "gasUsed": "0x3ee5c",
      "effectiveGasPrice": "0x5571390",
      "from": "0xcc2072de8d7ae4846c32ce038b451d23a4dad569",
      "to": "0xfc74cec4ce601491f43a66e797c6af17acc4081e",
      "contractAddress": null
    },
    {
      "status": "0x1",
      "cumulativeGasUsed": "0x24f36d2",
      "logs": [
        {
          "address": "0x88e6a0c2ddd26feeb64f039a2c41296fcb3f5640",
          "topics": [
            "0x0c396cd989a39f4459b5fa1aed6a9a8dcdbc45908acfd67e028cd568da98982c",
            "0x000000000000000000000000fc74cec4ce601491f43a66e797c6af17acc4081e",
            "0x0000000000000000000000000000000000000000000000000000000000030d4a",
            "0x0000000000000000000000000000000000000000000000000000000000030e12"
          ],
          "data": "0x00000000000000000000000000000000000000000000000000000000017fc2ef000000000000000000000000000000000000000000000000000000000000000500000000000000000000000000000000000000000000000000000000b2d05da7",
          "blockHash": "0x7cb7832e89629ef5b398394e9a70458d43a377494b2335c9debaa346f4f897fc",
          "blockNumber": "0x176f28d",
          "transactionHash": "0xbcb0db75b0e01db719eeba387b7c62757d38c8464c23b2ccdd43e234e5e0e852",
          "transactionIndex": "0x5",
          "logIndex": "0x0",
          "removed": false
        },
        {
          "address": "0xa0b86991c6218b36c1d19d4a2e9eb0ce3606eb48",
          "topics": [
            "0xddf252ad1be2c89b69c2b068fc378daa952ba7f163c4a11628f55a4df523b3ef",
            "0x00000000000000000000000088e6a0c2ddd26feeb64f039a2c41296fcb3f5640",
            "0x000000000000000000000000fc74cec4ce601491f43a66e797c6af17acc4081e"
          ],
          "data": "0x0000000000000000000000000000000000000000000000000000000000000005",
          "blockHash": "0x7cb7832e89629ef5b398394e9a70458d43a377494b2335c9debaa346f4f897fc",
          "blockNumber": "0x176f28d",
          "transactionHash": "0xbcb0db75b0e01db719eeba387b7c62757d38c8464c23b2ccdd43e234e5e0e852",
          "transactionIndex": "0x5",
          "logIndex": "0x1",
          "removed": false
        },
        {
          "address": "0xc02aaa39b223fe8d0a0e5c4f27ead9083c756cc2",
          "topics": [
            "0xddf252ad1be2c89b69c2b068fc378daa952ba7f163c4a11628f55a4df523b3ef",
            "0x00000000000000000000000088e6a0c2ddd26feeb64f039a2c41296fcb3f5640",
            "0x000000000000000000000000fc74cec4ce601491f43a66e797c6af17acc4081e"
          ],
          "data": "0x00000000000000000000000000000000000000000000000000000000b2d05da7",
          "blockHash": "0x7cb7832e89629ef5b398394e9a70458d43a377494b2335c9debaa346f4f897fc",
          "blockNumber": "0x176f28d",
          "transactionHash": "0xbcb0db75b0e01db719eeba387b7c62757d38c8464c23b2ccdd43e234e5e0e852",
          "transactionIndex": "0x5",
          "logIndex": "0x2",
          "removed": false
        },
        {
          "address": "0x88e6a0c2ddd26feeb64f039a2c41296fcb3f5640",
          "topics": [
            "0x70935338e69775456a85ddef226c395fb668b63fa0115f5f20610b388e6ca9c0",
            "0x000000000000000000000000fc74cec4ce601491f43a66e797c6af17acc4081e",
            "0x0000000000000000000000000000000000000000000000000000000000030d4a",
            "0x0000000000000000000000000000000000000000000000000000000000030e12"
          ],
          "data": "0x000000000000000000000000fc74cec4ce601491f43a66e797c6af17acc4081e000000000000000000000000000000000000000000000000000000000000000500000000000000000000000000000000000000000000000000000000b2d05da7",
          "blockHash": "0x7cb7832e89629ef5b398394e9a70458d43a377494b2335c9debaa346f4f897fc",
          "blockNumber": "0x176f28d",
          "transactionHash": "0xbcb0db75b0e01db719eeba387b7c62757d38c8464c23b2ccdd43e234e5e0e852",
          "transactionIndex": "0x5",
          "logIndex": "0x3",
          "removed": false
        },
        {
          "address": "0xfc74cec4ce601491f43a66e797c6af17acc4081e",
          "topics": [
            "0xe811ee4026cff80189c070b374c1d89f48462d565db565b6206c410a5db1f3a9",
            "0x00000000000000000000000088e6a0c2ddd26feeb64f039a2c41296fcb3f5640"
          ],
          "data": "0x00000000000000000000000000000000000000000000000000000000017fc2ef000000000000000000000000000000000000000000000000000000000000000500000000000000000000000000000000000000000000000000000000b2d05da7",
          "blockHash": "0x7cb7832e89629ef5b398394e9a70458d43a377494b2335c9debaa346f4f897fc",
          "blockNumber": "0x176f28d",
          "transactionHash": "0xbcb0db75b0e01db719eeba387b7c62757d38c8464c23b2ccdd43e234e5e0e852",
          "transactionIndex": "0x5",
          "logIndex": "0x4",
          "removed": false
        },
        {
          "address": "0xfc74cec4ce601491f43a66e797c6af17acc4081e",
          "topics": [
            "0x2e4fb6077d4acf86e12bb7411fb82b2b3eaa6a49787f4b1e17b423e7ea841169",
            "0x00000000000000000000000088e6a0c2ddd26feeb64f039a2c41296fcb3f5640"
          ],
          "data": "0x00000000000000000000000000000000000000000000000000000000000000000000000000000000000000000000000000000000000000000000000000000000",
          "blockHash": "0x7cb7832e89629ef5b398394e9a70458d43a377494b2335c9debaa346f4f897fc",
          "blockNumber": "0x176f28d",
          "transactionHash": "0xbcb0db75b0e01db719eeba387b7c62757d38c8464c23b2ccdd43e234e5e0e852",
          "transactionIndex": "0x5",
          "logIndex": "0x5",
          "removed": false
        }
      ],
      "logsBloom": "0x00000000010000000000000002000000002000000000000000000000040000000000000000000002000008000000000002000000080000000200000000001000000000000000208008000008000000000000000000010000010000000000000000000000000000000000000000000000000000000004000000100010000000000000000000000000000000000000008000008000010000000041000000000000000000000000200000000000000000000000000008000000002800000008000000000002000000000000080000000020000000000000000000000000000000080000280100040000000010000000000000000000000000000000008000000000",
      "type": "0x2",
      "transactionHash": "0xbcb0db75b0e01db719eeba387b7c62757d38c8464c23b2ccdd43e234e5e0e852",
      "transactionIndex": "0x5",
      "blockHash": "0x7cb7832e89629ef5b398394e9a70458d43a377494b2335c9debaa346f4f897fc",
      "blockNumber": "0x176f28d",
      "gasUsed": "0x234f8",
      "effectiveGasPrice": "0x5571390",
      "from": "0xcc2072de8d7ae4846c32ce038b451d23a4dad569",
      "to": "0xfc74cec4ce601491f43a66e797c6af17acc4081e",
      "contractAddress": null
    },
    {
      "status": "0x1",
      "cumulativeGasUsed": "0x250f036",
      "logs": [
        {
          "address": "0xa0b86991c6218b36c1d19d4a2e9eb0ce3606eb48",
          "topics": [
            "0xddf252ad1be2c89b69c2b068fc378daa952ba7f163c4a11628f55a4df523b3ef",
            "0x000000000000000000000000fc74cec4ce601491f43a66e797c6af17acc4081e",
            "0x00000000000000000000000088e6a0c2ddd26feeb64f039a2c41296fcb3f5640"
          ],
          "data": "0x0000000000000000000000000000000000000000000000000000000000000006",
          "blockHash": "0x7cb7832e89629ef5b398394e9a70458d43a377494b2335c9debaa346f4f897fc",
          "blockNumber": "0x176f28d",
          "transactionHash": "0xb0d48309a3de4f32c70d58c2ee61ae264cde4d311ab0025d1b4ee19a2268eec5",
          "transactionIndex": "0x6",
          "logIndex": "0x0",
          "removed": false
        },
        {
          "address": "0xc02aaa39b223fe8d0a0e5c4f27ead9083c756cc2",
          "topics": [
            "0xddf252ad1be2c89b69c2b068fc378daa952ba7f163c4a11628f55a4df523b3ef",
            "0x000000000000000000000000fc74cec4ce601491f43a66e797c6af17acc4081e",
            "0x00000000000000000000000088e6a0c2ddd26feeb64f039a2c41296fcb3f5640"
          ],
          "data": "0x00000000000000000000000000000000000000000000000000000000b2d05da8",
          "blockHash": "0x7cb7832e89629ef5b398394e9a70458d43a377494b2335c9debaa346f4f897fc",
          "blockNumber": "0x176f28d",
          "transactionHash": "0xb0d48309a3de4f32c70d58c2ee61ae264cde4d311ab0025d1b4ee19a2268eec5",
          "transactionIndex": "0x6",
          "logIndex": "0x1",
          "removed": false
        },
        {
          "address": "0x88e6a0c2ddd26feeb64f039a2c41296fcb3f5640",
          "topics": [
            "0x7a53080ba414158be7ec69b987b5fb7d07dee101fe85488f0853ae16239d0bde",
            "0x000000000000000000000000fc74cec4ce601491f43a66e797c6af17acc4081e",
            "0x0000000000000000000000000000000000000000000000000000000000030d4a",
            "0x0000000000000000000000000000000000000000000000000000000000030e12"
          ],
          "data": "0x000000000000000000000000fc74cec4ce601491f43a66e797c6af17acc4081e00000000000000000000000000000000000000000000000000000000017fc2ef000000000000000000000000000000000000000000000000000000000000000600000000000000000000000000000000000000000000000000000000b2d05da8",
          "blockHash": "0x7cb7832e89629ef5b398394e9a70458d43a377494b2335c9debaa346f4f897fc",
          "blockNumber": "0x176f28d",
          "transactionHash": "0xb0d48309a3de4f32c70d58c2ee61ae264cde4d311ab0025d1b4ee19a2268eec5",
          "transactionIndex": "0x6",
          "logIndex": "0x2",
          "removed": false
        },
        {
          "address": "0xfc74cec4ce601491f43a66e797c6af17acc4081e",
          "topics": [
            "0xc14ae40f0f069a7ba8576beee275b0dcf2c0607581fbc39709fd79051ec2d6f8",
            "0x00000000000000000000000088e6a0c2ddd26feeb64f039a2c41296fcb3f5640"
          ],
          "data": "0x00000000000000000000000000000000000000000000000000000000017fc2ef0000000000000000000000000000000000000000000000000000000000030d4a0000000000000000000000000000000000000000000000000000000000030e12000000000000000000000000000000000000000000000000000000000000000600000000000000000000000000000000000000000000000000000000b2d05da8",
          "blockHash": "0x7cb7832e89629ef5b398394e9a70458d43a377494b2335c9debaa346f4f897fc",
          "blockNumber": "0x176f28d",
          "transactionHash": "0xb0d48309a3de4f32c70d58c2ee61ae264cde4d311ab0025d1b4ee19a2268eec5",
          "transactionIndex": "0x6",
          "logIndex": "0x3",
          "removed": false
        }
      ],
      "logsBloom": "0x00000000010100000000100000000000000000000000000000000000040000000000000000000002000008000000000002000000080000000000000000001000000000000000208008000008000000000000000000000000000000000000000000000000000000000000000000000000000000000000000000100010000000000000000028000000000000000000008000000000010000000041000000000000000000000000200000000000000000000000000008000000002800000008000000000002000000000000080000000000000000000000000000000000000000080800200000000000000010000000000000000000000000000000008000000000",
      "type": "0x2",
      "transactionHash": "0xb0d48309a3de4f32c70d58c2ee61ae264cde4d311ab0025d1b4ee19a2268eec5",
      "transactionIndex": "0x6",
      "blockHash": "0x7cb7832e89629ef5b398394e9a70458d43a377494b2335c9debaa346f4f897fc",
      "blockNumber": "0x176f28d",
      "gasUsed": "0x3ee5c",
      "effectiveGasPrice": "0x5571390",
      "from": "0xcc2072de8d7ae4846c32ce038b451d23a4dad569",
      "to": "0xfc74cec4ce601491f43a66e797c6af17acc4081e",
      "contractAddress": null
    },
    {
      "status": "0x1",
      "cumulativeGasUsed": "0x24f36d2",
      "logs": [
        {
          "address": "0x88e6a0c2ddd26feeb64f039a2c41296fcb3f5640",
          "topics": [
            "0x0c396cd989a39f4459b5fa1aed6a9a8dcdbc45908acfd67e028cd568da98982c",
            "0x000000000000000000000000fc74cec4ce601491f43a66e797c6af17acc4081e",
            "0x0000000000000000000000000000000000000000000000000000000000030d4a",
            "0x0000000000000000000000000000000000000000000000000000000000030e12"
          ],
          "data": "0x00000000000000000000000000000000000000000000000000000000017fc2ef000000000000000000000000000000000000000000000000000000000000000500000000000000000000000000000000000000000000000000000000b2d05da7",
          "blockHash": "0x7cb7832e89629ef5b398394e9a70458d43a377494b2335c9debaa346f4f897fc",
          "blockNumber": "0x176f28d",
          "transactionHash": "0xcdb94ed2da41b7074a148f7bb93a4fe151b1950ad4a4e9f733bf361f560f03f0",
          "transactionIndex": "0x7",
          "logIndex": "0x0",
          "removed": false
        },
        {
          "address": "0xa0b86991c6218b36c1d19d4a2e9eb0ce3606eb48",
          "topics": [
            "0xddf252ad1be2c89b69c2b068fc378daa952ba7f163c4a11628f55a4df523b3ef",
            "0x00000000000000000000000088e6a0c2ddd26feeb64f039a2c41296fcb3f5640",
            "0x000000000000000000000000fc74cec4ce601491f43a66e797c6af17acc4081e"
          ],
          "data": "0x0000000000000000000000000000000000000000000000000000000000000005",
          "blockHash": "0x7cb7832e89629ef5b398394e9a70458d43a377494b2335c9debaa346f4f897fc",
          "blockNumber": "0x176f28d",
          "transactionHash": "0xcdb94ed2da41b7074a148f7bb93a4fe151b1950ad4a4e9f733bf361f560f03f0",
          "transactionIndex": "0x7",
          "logIndex": "0x1",
          "removed": false
        },
        {
          "address": "0xc02aaa39b223fe8d0a0e5c4f27ead9083c756cc2",
          "topics": [
            "0xddf252ad1be2c89b69c2b068fc378daa952ba7f163c4a11628f55a4df523b3ef",
            "0x00000000000000000000000088e6a0c2ddd26feeb64f039a2c41296fcb3f5640",
            "0x000000000000000000000000fc74cec4ce601491f43a66e797c6af17acc4081e"
          ],
          "data": "0x00000000000000000000000000000000000000000000000000000000b2d05da7",
          "blockHash": "0x7cb7832e89629ef5b398394e9a70458d43a377494b2335c9debaa346f4f897fc",
          "blockNumber": "0x176f28d",
          "transactionHash": "0xcdb94ed2da41b7074a148f7bb93a4fe151b1950ad4a4e9f733bf361f560f03f0",
          "transactionIndex": "0x7",
          "logIndex": "0x2",
          "removed": false
        },
        {
          "address": "0x88e6a0c2ddd26feeb64f039a2c41296fcb3f5640",
          "topics": [
            "0x70935338e69775456a85ddef226c395fb668b63fa0115f5f20610b388e6ca9c0",
            "0x000000000000000000000000fc74cec4ce601491f43a66e797c6af17acc4081e",
            "0x0000000000000000000000000000000000000000000000000000000000030d4a",
            "0x0000000000000000000000000000000000000000000000000000000000030e12"
          ],
          "data": "0x000000000000000000000000fc74cec4ce601491f43a66e797c6af17acc4081e000000000000000000000000000000000000000000000000000000000000000500000000000000000000000000000000000000000000000000000000b2d05da7",
          "blockHash": "0x7cb7832e89629ef5b398394e9a70458d43a377494b2335c9debaa346f4f897fc",
          "blockNumber": "0x176f28d",
          "transactionHash": "0xcdb94ed2da41b7074a148f7bb93a4fe151b1950ad4a4e9f733bf361f560f03f0",
          "transactionIndex": "0x7",
          "logIndex": "0x3",
          "removed": false
        },
        {
          "address": "0xfc74cec4ce601491f43a66e797c6af17acc4081e",
          "topics": [
            "0xe811ee4026cff80189c070b374c1d89f48462d565db565b6206c410a5db1f3a9",
            "0x00000000000000000000000088e6a0c2ddd26feeb64f039a2c41296fcb3f5640"
          ],
          "data": "0x00000000000000000000000000000000000000000000000000000000017fc2ef000000000000000000000000000000000000000000000000000000000000000500000000000000000000000000000000000000000000000000000000b2d05da7",
          "blockHash": "0x7cb7832e89629ef5b398394e9a70458d43a377494b2335c9debaa346f4f897fc",
          "blockNumber": "0x176f28d",
          "transactionHash": "0xcdb94ed2da41b7074a148f7bb93a4fe151b1950ad4a4e9f733bf361f560f03f0",
          "transactionIndex": "0x7",
          "logIndex": "0x4",
          "removed": false
        },
        {
          "address": "0xfc74cec4ce601491f43a66e797c6af17acc4081e",
          "topics": [
            "0x2e4fb6077d4acf86e12bb7411fb82b2b3eaa6a49787f4b1e17b423e7ea841169",
            "0x00000000000000000000000088e6a0c2ddd26feeb64f039a2c41296fcb3f5640"
          ],
          "data": "0x00000000000000000000000000000000000000000000000000000000000000000000000000000000000000000000000000000000000000000000000000000000",
          "blockHash": "0x7cb7832e89629ef5b398394e9a70458d43a377494b2335c9debaa346f4f897fc",
          "blockNumber": "0x176f28d",
          "transactionHash": "0xcdb94ed2da41b7074a148f7bb93a4fe151b1950ad4a4e9f733bf361f560f03f0",
          "transactionIndex": "0x7",
          "logIndex": "0x5",
          "removed": false
        }
      ],
      "logsBloom": "0x00000000010000000000000002000000002000000000000000000000040000000000000000000002000008000000000002000000080000000200000000001000000000000000208008000008000000000000000000010000010000000000000000000000000000000000000000000000000000000004000000100010000000000000000000000000000000000000008000008000010000000041000000000000000000000000200000000000000000000000000008000000002800000008000000000002000000000000080000000020000000000000000000000000000000080000280100040000000010000000000000000000000000000000008000000000",
      "type": "0x2",
      "transactionHash": "0xcdb94ed2da41b7074a148f7bb93a4fe151b1950ad4a4e9f733bf361f560f03f0",
      "transactionIndex": "0x7",
      "blockHash": "0x7cb7832e89629ef5b398394e9a70458d43a377494b2335c9debaa346f4f897fc",
      "blockNumber": "0x176f28d",
      "gasUsed": "0x234f8",
      "effectiveGasPrice": "0x5571390",
      "from": "0xcc2072de8d7ae4846c32ce038b451d23a4dad569",
      "to": "0xfc74cec4ce601491f43a66e797c6af17acc4081e",
      "contractAddress": null
    },
    {
      "status": "0x1",
      "cumulativeGasUsed": "0x250f036",
      "logs": [
        {
          "address": "0xa0b86991c6218b36c1d19d4a2e9eb0ce3606eb48",
          "topics": [
            "0xddf252ad1be2c89b69c2b068fc378daa952ba7f163c4a11628f55a4df523b3ef",
            "0x000000000000000000000000fc74cec4ce601491f43a66e797c6af17acc4081e",
            "0x00000000000000000000000088e6a0c2ddd26feeb64f039a2c41296fcb3f5640"
          ],
          "data": "0x0000000000000000000000000000000000000000000000000000000000000006",
          "blockHash": "0x7cb7832e89629ef5b398394e9a70458d43a377494b2335c9debaa346f4f897fc",
          "blockNumber": "0x176f28d",
          "transactionHash": "0xbf0e35cc7efc66d043917b0fdf89eed10312a6e325da569d2aee2b9e1063b11c",
          "transactionIndex": "0x8",
          "logIndex": "0x0",
          "removed": false
        },
        {
          "address": "0xc02aaa39b223fe8d0a0e5c4f27ead9083c756cc2",
          "topics": [
            "0xddf252ad1be2c89b69c2b068fc378daa952ba7f163c4a11628f55a4df523b3ef",
            "0x000000000000000000000000fc74cec4ce601491f43a66e797c6af17acc4081e",
            "0x00000000000000000000000088e6a0c2ddd26feeb64f039a2c41296fcb3f5640"
          ],
          "data": "0x00000000000000000000000000000000000000000000000000000000b2d05da8",
          "blockHash": "0x7cb7832e89629ef5b398394e9a70458d43a377494b2335c9debaa346f4f897fc",
          "blockNumber": "0x176f28d",
          "transactionHash": "0xbf0e35cc7efc66d043917b0fdf89eed10312a6e325da569d2aee2b9e1063b11c",
          "transactionIndex": "0x8",
          "logIndex": "0x1",
          "removed": false
        },
        {
          "address": "0x88e6a0c2ddd26feeb64f039a2c41296fcb3f5640",
          "topics": [
            "0x7a53080ba414158be7ec69b987b5fb7d07dee101fe85488f0853ae16239d0bde",
            "0x000000000000000000000000fc74cec4ce601491f43a66e797c6af17acc4081e",
            "0x0000000000000000000000000000000000000000000000000000000000030d4a",
            "0x0000000000000000000000000000000000000000000000000000000000030e12"
          ],
          "data": "0x000000000000000000000000fc74cec4ce601491f43a66e797c6af17acc4081e00000000000000000000000000000000000000000000000000000000017fc2ef000000000000000000000000000000000000000000000000000000000000000600000000000000000000000000000000000000000000000000000000b2d05da8",
          "blockHash": "0x7cb7832e89629ef5b398394e9a70458d43a377494b2335c9debaa346f4f897fc",
          "blockNumber": "0x176f28d",
          "transactionHash": "0xbf0e35cc7efc66d043917b0fdf89eed10312a6e325da569d2aee2b9e1063b11c",
          "transactionIndex": "0x8",
          "logIndex": "0x2",
          "removed": false
        },
        {
          "address": "0xfc74cec4ce601491f43a66e797c6af17acc4081e",
          "topics": [
            "0xc14ae40f0f069a7ba8576beee275b0dcf2c0607581fbc39709fd79051ec2d6f8",
            "0x00000000000000000000000088e6a0c2ddd26feeb64f039a2c41296fcb3f5640"
          ],
          "data": "0x00000000000000000000000000000000000000000000000000000000017fc2ef0000000000000000000000000000000000000000000000000000000000030d4a0000000000000000000000000000000000000000000000000000000000030e12000000000000000000000000000000000000000000000000000000000000000600000000000000000000000000000000000000000000000000000000b2d05da8",
          "blockHash": "0x7cb7832e89629ef5b398394e9a70458d43a377494b2335c9debaa346f4f897fc",
          "blockNumber": "0x176f28d",
          "transactionHash": "0xbf0e35cc7efc66d043917b0fdf89eed10312a6e325da569d2aee2b9e1063b11c",
          "transactionIndex": "0x8",
          "logIndex": "0x3",
          "removed": false
        }
      ],
      "logsBloom": "0x00000000010100000000100000000000000000000000000000000000040000000000000000000002000008000000000002000000080000000000000000001000000000000000208008000008000000000000000000000000000000000000000000000000000000000000000000000000000000000000000000100010000000000000000028000000000000000000008000000000010000000041000000000000000000000000200000000000000000000000000008000000002800000008000000000002000000000000080000000000000000000000000000000000000000080800200000000000000010000000000000000000000000000000008000000000",
      "type": "0x2",
      "transactionHash": "0xbf0e35cc7efc66d043917b0fdf89eed10312a6e325da569d2aee2b9e1063b11c",
      "transactionIndex": "0x8",
      "blockHash": "0x7cb7832e89629ef5b398394e9a70458d43a377494b2335c9debaa346f4f897fc",
      "blockNumber": "0x176f28d",
      "gasUsed": "0x3ee5c",
      "effectiveGasPrice": "0x5571390",
      "from": "0xcc2072de8d7ae4846c32ce038b451d23a4dad569",
      "to": "0xfc74cec4ce601491f43a66e797c6af17acc4081e",
      "contractAddress": null
    },
    {
      "status": "0x1",
      "cumulativeGasUsed": "0x24f36d2",
      "logs": [
        {
          "address": "0x88e6a0c2ddd26feeb64f039a2c41296fcb3f5640",
          "topics": [
            "0x0c396cd989a39f4459b5fa1aed6a9a8dcdbc45908acfd67e028cd568da98982c",
            "0x000000000000000000000000fc74cec4ce601491f43a66e797c6af17acc4081e",
            "0x0000000000000000000000000000000000000000000000000000000000030d4a",
            "0x0000000000000000000000000000000000000000000000000000000000030e12"
          ],
          "data": "0x00000000000000000000000000000000000000000000000000000000017fc2ef000000000000000000000000000000000000000000000000000000000000000500000000000000000000000000000000000000000000000000000000b2d05da7",
          "blockHash": "0x7cb7832e89629ef5b398394e9a70458d43a377494b2335c9debaa346f4f897fc",
          "blockNumber": "0x176f28d",
          "transactionHash": "0x2d714b080b618566df92199c50d1489e8c7d7374061f6b63cd443a8cbd60a90c",
          "transactionIndex": "0x9",
          "logIndex": "0x0",
          "removed": false
        },
        {
          "address": "0xa0b86991c6218b36c1d19d4a2e9eb0ce3606eb48",
          "topics": [
            "0xddf252ad1be2c89b69c2b068fc378daa952ba7f163c4a11628f55a4df523b3ef",
            "0x00000000000000000000000088e6a0c2ddd26feeb64f039a2c41296fcb3f5640",
            "0x000000000000000000000000fc74cec4ce601491f43a66e797c6af17acc4081e"
          ],
          "data": "0x0000000000000000000000000000000000000000000000000000000000000005",
          "blockHash": "0x7cb7832e89629ef5b398394e9a70458d43a377494b2335c9debaa346f4f897fc",
          "blockNumber": "0x176f28d",
          "transactionHash": "0x2d714b080b618566df92199c50d1489e8c7d7374061f6b63cd443a8cbd60a90c",
          "transactionIndex": "0x9",
          "logIndex": "0x1",
          "removed": false
        },
        {
          "address": "0xc02aaa39b223fe8d0a0e5c4f27ead9083c756cc2",
          "topics": [
            "0xddf252ad1be2c89b69c2b068fc378daa952ba7f163c4a11628f55a4df523b3ef",
            "0x00000000000000000000000088e6a0c2ddd26feeb64f039a2c41296fcb3f5640",
            "0x000000000000000000000000fc74cec4ce601491f43a66e797c6af17acc4081e"
          ],
          "data": "0x00000000000000000000000000000000000000000000000000000000b2d05da7",
          "blockHash": "0x7cb7832e89629ef5b398394e9a70458d43a377494b2335c9debaa346f4f897fc",
          "blockNumber": "0x176f28d",
          "transactionHash": "0x2d714b080b618566df92199c50d1489e8c7d7374061f6b63cd443a8cbd60a90c",
          "transactionIndex": "0x9",
          "logIndex": "0x2",
          "removed": false
        },
        {
          "address": "0x88e6a0c2ddd26feeb64f039a2c41296fcb3f5640",
          "topics": [
            "0x70935338e69775456a85ddef226c395fb668b63fa0115f5f20610b388e6ca9c0",
            "0x000000000000000000000000fc74cec4ce601491f43a66e797c6af17acc4081e",
            "0x0000000000000000000000000000000000000000000000000000000000030d4a",
            "0x0000000000000000000000000000000000000000000000000000000000030e12"
          ],
          "data": "0x000000000000000000000000fc74cec4ce601491f43a66e797c6af17acc4081e000000000000000000000000000000000000000000000000000000000000000500000000000000000000000000000000000000000000000000000000b2d05da7",
          "blockHash": "0x7cb7832e89629ef5b398394e9a70458d43a377494b2335c9debaa346f4f897fc",
          "blockNumber": "0x176f28d",
          "transactionHash": "0x2d714b080b618566df92199c50d1489e8c7d7374061f6b63cd443a8cbd60a90c",
          "transactionIndex": "0x9",
          "logIndex": "0x3",
          "removed": false
        },
        {
          "address": "0xfc74cec4ce601491f43a66e797c6af17acc4081e",
          "topics": [
            "0xe811ee4026cff80189c070b374c1d89f48462d565db565b6206c410a5db1f3a9",
            "0x00000000000000000000000088e6a0c2ddd26feeb64f039a2c41296fcb3f5640"
          ],
          "data": "0x00000000000000000000000000000000000000000000000000000000017fc2ef000000000000000000000000000000000000000000000000000000000000000500000000000000000000000000000000000000000000000000000000b2d05da7",
          "blockHash": "0x7cb7832e89629ef5b398394e9a70458d43a377494b2335c9debaa346f4f897fc",
          "blockNumber": "0x176f28d",
          "transactionHash": "0x2d714b080b618566df92199c50d1489e8c7d7374061f6b63cd443a8cbd60a90c",
          "transactionIndex": "0x9",
          "logIndex": "0x4",
          "removed": false
        },
        {
          "address": "0xfc74cec4ce601491f43a66e797c6af17acc4081e",
          "topics": [
            "0x2e4fb6077d4acf86e12bb7411fb82b2b3eaa6a49787f4b1e17b423e7ea841169",
            "0x00000000000000000000000088e6a0c2ddd26feeb64f039a2c41296fcb3f5640"
          ],
          "data": "0x00000000000000000000000000000000000000000000000000000000000000000000000000000000000000000000000000000000000000000000000000000000",
          "blockHash": "0x7cb7832e89629ef5b398394e9a70458d43a377494b2335c9debaa346f4f897fc",
          "blockNumber": "0x176f28d",
          "transactionHash": "0x2d714b080b618566df92199c50d1489e8c7d7374061f6b63cd443a8cbd60a90c",
          "transactionIndex": "0x9",
          "logIndex": "0x5",
          "removed": false
        }
      ],
      "logsBloom": "0x00000000010000000000000002000000002000000000000000000000040000000000000000000002000008000000000002000000080000000200000000001000000000000000208008000008000000000000000000010000010000000000000000000000000000000000000000000000000000000004000000100010000000000000000000000000000000000000008000008000010000000041000000000000000000000000200000000000000000000000000008000000002800000008000000000002000000000000080000000020000000000000000000000000000000080000280100040000000010000000000000000000000000000000008000000000",
      "type": "0x2",
      "transactionHash": "0x2d714b080b618566df92199c50d1489e8c7d7374061f6b63cd443a8cbd60a90c",
      "transactionIndex": "0x9",
      "blockHash": "0x7cb7832e89629ef5b398394e9a70458d43a377494b2335c9debaa346f4f897fc",
      "blockNumber": "0x176f28d",
      "gasUsed": "0x234f8",
      "effectiveGasPrice": "0x5571390",
      "from": "0xcc2072de8d7ae4846c32ce038b451d23a4dad569",
      "to": "0xfc74cec4ce601491f43a66e797c6af17acc4081e",
      "contractAddress": null
    }
  ],
  "libraries": [],
  "pending": [],
  "returns": {},
  "timestamp": 1772488262946,
  "chain": 42663,
  "commit": "bfa2a30"
}