{
  "transactions": [
    {
      "hash": "0x180c4180cdc157d270baad4d863ad3c19c6f757b868ca2f9676d9c82d780d060",
      "transactionType": "CALL",
      "contractName": null,
      "contractAddress": "0xfc74cec4ce601491f43a66e797c6af17acc4081e",
      "function": "addJITLiquidity(address,int24,int24,uint256,uint256)",
      "arguments": [
        "0x88e6A0c2dDD26FEEb64F039a2c41296FcB3f5640",
        "200060",
        "200160",
        "3800000000000",
        "50000000000000000000"
      ],
      "transaction": {
        "from": "0xcc2072de8d7ae4846c32ce038b451d23a4dad569",
        "to": "0xfc74cec4ce601491f43a66e797c6af17acc4081e",
        "gas": "0x55391",
        "value": "0x0",
        "input": "0x86059b4400000000000000000000000088e6a0c2ddd26feeb64f039a2c41296fcb3f56400000000000000000000000000000000000000000000000000000000000030d7c0000000000000000000000000000000000000000000000000000000000030de000000000000000000000000000000000000000000000000000000374c1a67000000000000000000000000000000000000000000000000002b5e3af16b1880000",
        "nonce": "0x15",
        "chainId": "0xa6a7"
      },
      "additionalContracts": [],
      "isFixedGasLimit": false
    }
  ],
  "receipts": [
    {
      "status": "0x1",
      "cumulativeGasUsed": "0x21c4f0b",
      "logs": [
        {
          "address": "0xa0b86991c6218b36c1d19d4a2e9eb0ce3606eb48",
          "topics": [
            "0xddf252ad1be2c89b69c2b068fc378daa952ba7f163c4a11628f55a4df523b3ef",
            "0x000000000000000000000000fc74cec4ce601491f43a66e797c6af17acc4081e",
            "0x00000000000000000000000088e6a0c2ddd26feeb64f039a2c41296fcb3f5640"
          ],
          "data": "0x000000000000000000000000000000000000000000000000000000112e1da58f",
          "blockHash": "0xa80bc8ebdf0d9a6237e27839eab5eeb7d3d681e0f39ceddfb98f8058a9854f44",
          "blockNumber": "0x176ffcd",
          "transactionHash": "0x180c4180cdc157d270baad4d863ad3c19c6f757b868ca2f9676d9c82d780d060",
          "transactionIndex": "0x0",
          "logIndex": "0x0",
          "removed": false
        },
        {
          "address": "0xc02aaa39b223fe8d0a0e5c4f27ead9083c756cc2",
          "topics": [
            "0xddf252ad1be2c89b69c2b068fc378daa952ba7f163c4a11628f55a4df523b3ef",
            "0x000000000000000000000000fc74cec4ce601491f43a66e797c6af17acc4081e",
            "0x00000000000000000000000088e6a0c2ddd26feeb64f039a2c41296fcb3f5640"
          ],
          "data": "0x000000000000000000000000000000000000000000000002b5e3af16b187ffef",
          "blockHash": "0xa80bc8ebdf0d9a6237e27839eab5eeb7d3d681e0f39ceddfb98f8058a9854f44",
          "blockNumber": "0x176ffcd",
          "transactionHash": "0x180c4180cdc157d270baad4d863ad3c19c6f757b868ca2f9676d9c82d780d060",
          "transactionIndex": "0x0",
          "logIndex": "0x1",
          "removed": false
        },
        {
          "address": "0x88e6a0c2ddd26feeb64f039a2c41296fcb3f5640",
          "topics": [
            "0x7a53080ba414158be7ec69b987b5fb7d07dee101fe85488f0853ae16239d0bde",
            "0x000000000000000000000000fc74cec4ce601491f43a66e797c6af17acc4081e",
            "0x0000000000000000000000000000000000000000000000000000000000030d7c",
            "0x0000000000000000000000000000000000000000000000000000000000030de0"
          ],
          "data": "0x000000000000000000000000fc74cec4ce601491f43a66e797c6af17acc4081e0000000000000000000000000000000000000000000000000ad10540b574880e000000000000000000000000000000000000000000000000000000112e1da58f000000000000000000000000000000000000000000000002b5e3af16b187ffef",
          "blockHash": "0xa80bc8ebdf0d9a6237e27839eab5eeb7d3d681e0f39ceddfb98f8058a9854f44",
          "blockNumber": "0x176ffcd",
          "transactionHash": "0x180c4180cdc157d270baad4d863ad3c19c6f757b868ca2f9676d9c82d780d060",
          "transactionIndex": "0x0",
          "logIndex": "0x2",
          "removed": false
        },
        {
          "address": "0xfc74cec4ce601491f43a66e797c6af17acc4081e",
          "topics": [
            "0xc14ae40f0f069a7ba8576beee275b0dcf2c0607581fbc39709fd79051ec2d6f8",
            "0x00000000000000000000000088e6a0c2ddd26feeb64f039a2c41296fcb3f5640"
          ],
          "data": "0x0000000000000000000000000000000000000000000000000ad10540b574880e0000000000000000000000000000000000000000000000000000000000030d7c0000000000000000000000000000000000000000000000000000000000030de0000000000000000000000000000000000000000000000000000000112e1da58f000000000000000000000000000000000000000000000002b5e3af16b187ffef",
          "blockHash": "0xa80bc8ebdf0d9a6237e27839eab5eeb7d3d681e0f39ceddfb98f8058a9854f44",
          "blockNumber": "0x176ffcd",
          "transactionHash": "0x180c4180cdc157d270baad4d863ad3c19c6f757b868ca2f9676d9c82d780d060",
          "transactionIndex": "0x0",
          "logIndex": "0x3",
          "removed": false
        }
      ],
      "logsBloom": "0x0000000001010000000010000000000000000000000000000000000004000000000000000000000000000800000000000200000008000000000000000000100000000000000000000800000800000000000000000000000000000000000000000000000000000000000000000000000000000000000000000010001000000000000000002800000000000000000000a000004000010100000040000000000000000000000000204100000000000000000000000000000000002800000008000000000002000000000000080000000000000000000000000000000000000004080800200000000000000010000000000000000000000000000000000000000000",
      "type": "0x2",
      "transactionHash": "0x180c4180cdc157d270baad4d863ad3c19c6f757b868ca2f9676d9c82d780d060",
      "transactionIndex": "0x0",
      "blockHash": "0xa80bc8ebdf0d9a6237e27839eab5eeb7d3d681e0f39ceddfb98f8058a9854f44",
      "blockNumber": "0x176ffcd",
      "gasUsed": "0x3a45b",
      "effectiveGasPrice": "0x7aeac92",
      "from": "0xcc2072de8d7ae4846c32ce038b451d23a4dad569",
      "to": "0xfc74cec4ce601491f43a66e797c6af17acc4081e",
      "contractAddress": null
    }
  ],
  "libraries": [],
  "pending": [],
  "returns": {},
  "timestamp": 1772529153806,
  "chain": 42663,
  "commit": "bfa2a30"
}