{
  "transactions": [
    {
      "hash": "0xd9b1a18b6c782f9bbc50783a3055927e00ada710bded1bdfc6ef85dfedfa449f",
      "transactionType": "CALL",
      "contractName": null,
      "contractAddress": "0xfc74cec4ce601491f43a66e797c6af17acc4081e",
      "function": "addJITLiquidity(address,int24,int24,uint256,uint256)",
      "arguments": [
        "0x88e6A0c2dDD26FEEb64F039a2c41296FcB3f5640",
        "200010",
        "200210",
        "1000000000000000000",
        "3000000000"
      ],
      "transaction": {
        "from": "0xcc2072de8d7ae4846c32ce038b451d23a4dad569",
        "to": "0xfc74cec4ce601491f43a66e797c6af17acc4081e",
        "gas": "0x5bdc5",
        "value": "0x0",
        "input": "0x86059b4400000000000000000000000088e6a0c2ddd26feeb64f039a2c41296fcb3f56400000000000000000000000000000000000000000000000000000000000030d4a0000000000000000000000000000000000000000000000000000000000030e120000000000000000000000000000000000000000000000000de0b6b3a764000000000000000000000000000000000000000000000000000000000000b2d05e00",
        "nonce": "0x14",
        "chainId": "0xa6a7"
      },
      "additionalContracts": [],
      "isFixedGasLimit": false
    }
  ],
  "receipts": [
    {
      "status": "0x1",
      "cumulativeGasUsed": "0x18eda73",
      "logs": [
        {
          "address": "0xa0b86991c6218b36c1d19d4a2e9eb0ce3606eb48",
          "topics": [
            "0xddf252ad1be2c89b69c2b068fc378daa952ba7f163c4a11628f55a4df523b3ef",
            "0x000000000000000000000000fc74cec4ce601491f43a66e797c6af17acc4081e",
            "0x00000000000000000000000088e6a0c2ddd26feeb64f039a2c41296fcb3f5640"
          ],
          "data": "0x0000000000000000000000000000000000000000000000000000000000000006",
          "blockHash": "0x4f2a99efe8c05341d8ea8fa7e6961588088951af5447e32d2c8c650468a77eeb",
          "blockNumber": "0x176f35e",
          "transactionHash": "0xd9b1a18b6c782f9bbc50783a3055927e00ada710bded1bdfc6ef85dfedfa449f",
          "transactionIndex": "0x0",
          "logIndex": "0x0",
          "removed": false
        },
        {
          "address": "0xc02aaa39b223fe8d0a0e5c4f27ead9083c756cc2",
          "topics": [
            "0xddf252ad1be2c89b69c2b068fc378daa952ba7f163c4a11628f55a4df523b3ef",
            "0x000000000000000000000000fc74cec4ce601491f43a66e797c6af17acc4081e",
            "0x00000000000000000000000088e6a0c2ddd26feeb64f039a2c41296fcb3f5640"
          ],
          "data": "0x00000000000000000000000000000000000000000000000000000000b2d05da8",
          "blockHash": "0x4f2a99efe8c05341d8ea8fa7e6961588088951af5447e32d2c8c650468a77eeb",
          "blockNumber": "0x176f35e",
          "transactionHash": "0xd9b1a18b6c782f9bbc50783a3055927e00ada710bded1bdfc6ef85dfedfa449f",
          "transactionIndex": "0x0",
          "logIndex": "0x1",
          "removed": false
        },
        {
          "address": "0x88e6a0c2ddd26feeb64f039a2c41296fcb3f5640",
          "topics": [
            "0x7a53080ba414158be7ec69b987b5fb7d07dee101fe85488f0853ae16239d0bde",
            "0x000000000000000000000000fc74cec4ce601491f43a66e797c6af17acc4081e",
            "0x0000000000000000000000000000000000000000000000000000000000030d4a",
            "0x0000000000000000000000000000000000000000000000000000000000030e12"
          ],
          "data": "0x000000000000000000000000fc74cec4ce601491f43a66e797c6af17acc4081e00000000000000000000000000000000000000000000000000000000017fc2ef000000000000000000000000000000000000000000000000000000000000000600000000000000000000000000000000000000000000000000000000b2d05da8",
          "blockHash": "0x4f2a99efe8c05341d8ea8fa7e6961588088951af5447e32d2c8c650468a77eeb",
          "blockNumber": "0x176f35e",
          "transactionHash": "0xd9b1a18b6c782f9bbc50783a3055927e00ada710bded1bdfc6ef85dfedfa449f",
          "transactionIndex": "0x0",
          "logIndex": "0x2",
          "removed": false
        },
        {
          "address": "0xfc74cec4ce601491f43a66e797c6af17acc4081e",
          "topics": [
            "0xc14ae40f0f069a7ba8576beee275b0dcf2c0607581fbc39709fd79051ec2d6f8",
            "0x00000000000000000000000088e6a0c2ddd26feeb64f039a2c41296fcb3f5640"
          ],
          "data": "0x00000000000000000000000000000000000000000000000000000000017fc2ef0000000000000000000000000000000000000000000000000000000000030d4a0000000000000000000000000000000000000000000000000000000000030e12000000000000000000000000000000000000000000000000000000000000000600000000000000000000000000000000000000000000000000000000b2d05da8",
          "blockHash": "0x4f2a99efe8c05341d8ea8fa7e6961588088951af5447e32d2c8c650468a77eeb",
          "blockNumber": "0x176f35e",
          "transactionHash": "0xd9b1a18b6c782f9bbc50783a3055927e00ada710bded1bdfc6ef85dfedfa449f",
          "transactionIndex": "0x0",
          "logIndex": "0x3",
          "removed": false
        }
      ],
      "logsBloom": "0x00000000010100000000100000000000000000000000000000000000040000000000000000000002000008000000000002000000080000000000000000001000000000000000208008000008000000000000000000000000000000000000000000000000000000000000000000000000000000000000000000100010000000000000000028000000000000000000008000000000010000000041000000000000000000000000200000000000000000000000000008000000002800000008000000000002000000000000080000000000000000000000000000000000000000080800200000000000000010000000000000000000000000000000008000000000",
      "type": "0x2",
      "transactionHash": "0xd9b1a18b6c782f9bbc50783a3055927e00ada710bded1bdfc6ef85dfedfa449f",
      "transactionIndex": "0x0",
      "blockHash": "0x4f2a99efe8c05341d8ea8fa7e6961588088951af5447e32d2c8c650468a77eeb",
      "blockNumber": "0x176f35e",
      "gasUsed": "0x42817",
      "effectiveGasPrice": "0x50bbda9",
      "from": "0xcc2072de8d7ae4846c32ce038b451d23a4dad569",
      "to": "0xfc74cec4ce601491f43a66e797c6af17acc4081e",
      "contractAddress": null
    }
  ],
  "libraries": [],
  "pending": [],
  "returns": {},
  "timestamp": 1772490777061,
  "chain": 42663,
  "commit": "bfa2a30"
}